:020000040800F2
:10000000B88000206D0300089D9900089F990008A2
:10001000A3990008A7990008AB9900080000000008
:10002000000000000000000000000000BD02000809
:10003000AF9900080000000001030008B399000810
:10004000870300088703000887030008FB92000865
:100050008703000887030008B96D0008CF6D00080A
:10006000E56D0008FB6D0008116E000887030008AD
:100070008703000887030008870300088703000838
:100080008703000887030008870300088703000828
:10009000870300088703000887030008276E00080D
:1000A0008703000887030008870300088703000808
:1000B00087030008870300088703000887030008F8
:1000C00087030008870300088703000887030008E8
:1000D0008703000895680008B1680008CF68000829
:1000E0008D6E000839930008870300088703000815
:1000F00087030008870300088703000887030008B8
:1001000087030008870300088703000887030008A7
:10011000ED6800080B6900088703000887030008E2
:100120008703000887030008870300088703000887
:100130008703000887030008870300088703000877
:100140008703000887030008870300088703000867
:100150008703000887030008870300082769000851
:100160008703000887030008870300088703000847
:100170008703000887030008870300088703000837
:1001800087030008870300084569000863690008C1
:100190008703000887030008870300088703000817
:1001A00087030008870300088703000800F002F8AF
:1001B00000F075F80AA090E8000C82448344AAF18C
:1001C0000107DA4501D100F06AF8AFF2090EBAE88A
:1001D0000F0013F0010F18BFFB1A43F0010318477B
:1001E000F0370100103801000A444FF0000C10F8FD
:1001F000013B13F0070408BF10F8014B1D1108BFA5
:1002000010F8015B641E05D010F8016B641E01F844
:10021000016BF9D113F0080F1EBF10F8014BAD1C94
:100220000C1B09D16D1E58BF01F801CBFAD505E0B2
:1002300014F8016B01F8016B6D1EF9D59142D6D30C
:10024000704700000023002400250026103A28BF34
:1002500078C1FBD8520728BF30C148BF0B60704738
:10026000662910F0F58464290FF0028275290FF0D9
:10027000FF81002070471FB510F0E5FC0FF076FEFF
:1002800004000020002110F051FC401C60600020A0
:10029000002110F035FCE0601FBD10B510BD0FF05F
:1002A000D4FF1146FFF7E7FF09F081F810F000F8DE
:1002B00003B4FFF7F2FF03BC10F040F8234B1968BA
:1002C0000868B0E8F04F80F309884FF0000080F331
:1002D000118870470000000003480068006880F340
:1002E000088862B600DF00BF08ED00E0DFF80C0010
:1002F000016841F470010160704700BF88ED00E0C3
:10030000EFF30980114B1A681EF0100F08BF20EDA3
:10031000108A20E9F04F106008B44FF0500080F3CD
:1003200011880BF059F84FF0000080F3118808BCD9
:1003300019680868B0E8F04F1EF0100F08BFB0EC65
:10034000108A80F30988704700BF00BF7C0100203D
:10035000EFF311804FF0500181F31188704780F363
:1003600011887047EFF30580704700000948804707
:1003700009480047FEE7FEE7FEE7FEE7FEE7FEE787
:10038000FEE7FEE7FEE7FEE704480549054A064B9F
:1003900070470000D59A0008AD010008B87A002027
:1003A000B8800020B87C0020B87C0020324901438E
:1003B000324A1160704770B5002100230F22C478C3
:1003C0001CB32E4C246804F4E064C4F5E064C4F368
:1003D0000721C1F10404E3B20A4144789C40E1B230
:1003E0008478144021430C07210E254C0578615573
:1003F000047804F01F050124AC4005786D11AD00B0
:1004000005F1E025C5F8004109E0047804F01F0576
:100410000124AC401B4D0678761145F8264070BD8E
:10042000194A0A400243154B1B1F1A60704739B125
:10043000124A121D12680243104B1B1D1A6006E07F
:100440000E4A121D126882430C4B1B1D1A60704726
:10045000042808D14FF0E021096941F004014FF070
:10046000E022116107E04FF0E021096921F0040169
:100470004FF0E022116170470000FA050CED00E03A
:1004800000E400E080E100E080FFFF1FF648006824
:1004900040F00100F44908600020F3490831086089
:1004A000F1480068F1490840EF490860F048091D2B
:1004B0000860F048EC4984310860ED481038091DA7
:1004C0000860E948006820F48020E74908600020BF
:1004D000E5490C310860E4498C310860704700211F
:1004E000E14A921C117011460870704710B5014620
:1004F0000022002300204A11012A02D1DA4C23688D
:1005000008E0022A03D1D84C7034236802E0D64CAC
:100510007434236801F01F02012494401C400CB184
:10052000012000E0002010BD38B50020009000241C
:10053000002500BF3120FFF7D9FF05460098401C79
:1005400000900098B0F5A04F01D0002DF2D03120DE
:10055000FFF7CCFF08B1012400E00024204638BD9D
:1005600001460020C04A106820F0F80040EAC100AF
:1005700010607047C049086070470021BA4A703265
:1005800011701170012802D004280AD104E0012161
:10059000B54A7032117005E00521B34A703211700E
:1005A00000E000BF00BF7047B4490860704770B5F5
:1005B000049C41EA82150126C6EB530645EA06452E
:1005C000054345EA0465A84E361D356070BDAA494D
:1005D0000866704710B5830143EA016343EA02737A
:1005E000A14C8434236010BDA3498866704710B5C0
:1005F000830143EA016343EA02739B4C883423601E
:1006000010BD9D49086770479B49C8647047024602
:100610000020954B0833186820F0EC6042EA010393
:100620001843914B083318607047024600208E4BE8
:100630000833186820F0784042EA010318438A4BD7
:1006400008331860704701460020874A0832106856
:1006500020F00300084310607047834808300068AA
:1006600000F00C007047014600207F4A08321068F5
:1006700020F0F000084310607047014600207A4ADD
:100680000832106820F4E0500843106070470146BB
:100690000020754A0832106820F4604040EAC1002A
:1006A00010607047F0B500210022002402250026CA
:1006B00002236D4F08373F6807F00C0121B1042970
:1006C00005D0082937D105E06D4F076036E06D4F42
:1006D000076033E0644F3F1D3F68C7F38056624FA9
:1006E0003F1D3F6807F03F036EB1664FB7FBF3F75E
:1006F000DFF874C10CF1040CDCF800C0CCF3881CEA
:1007000007FB0CF40CE05E4FB7FBF3F7DFF858C1C2
:100710000CF1040CDCF800C0CCF3881C07FB0CF4D3
:10072000514F3F1D3F68C7F301477F1C7D00B4FB5D
:10073000F5F7076002E0524F076000BF00BF4A4F65
:1007400008373F6807F0F00109094F4F7A5C0768E6
:10075000D7404760444F08373F6807F4E051890AA3
:10076000494F7A5C4768D74087603F4F08373F68FA
:1007700007F46041490B444F7A5C4768D740C76033
:10078000F0BD002100F44072B2F5407F0AD1364A34
:100790000832116821F4F8113C4A02401143324AF0
:1007A00008321160304A70321268C0F30B031A43EA
:1007B0002D4B70331A6070473049443908607047D8
:1007C0002E4940390860704731490860704701463A
:1007D0000020254A8C32106820F01F004A1E10436A
:1007E000214A8C3210607047014600201E4A8C322C
:1007F000106820F4F8504A1E40EA02201A4A8C324F
:100800001060704701460020174A8C32106820F4AF
:10081000401008431060704701460020124A8C3295
:10082000106820F440000843106070470146002023
:100830000D4A8C32106820F4403008431060704735
:1008400014490860704739B1074A303212680243D0
:10085000054B30331A6006E0034A30321268824397
:10086000014B30331A60704700380240FFFFF6EA50
:10087000103000240030002000004742800E474224
:100880000024F40000127A0000000020FFFCFF0F9B
:100890005C014742E011474229B1934A1268024382
:1008A000914B1A6004E0904A126882438E4B1A60A2
:1008B000704739B18C4A121D126802438A4B1B1DC6
:1008C0001A6006E0884A121D12688243864B1B1D7F
:1008D0001A60704739B1844A0C3212680243824B65
:1008E0000C331A6006E0804A0C32126882437E4B59
:1008F0000C331A60704739B17B4A103212680243D8
:10090000794B10331A6006E0774A1032126882433E
:10091000754B10331A60704739B1734A243A126824
:100920000243714B243B1A6006E06F4A243A126876
:1009300082436D4B243B1A60704739B16A4A203AB2
:1009400012680243684B203B1A6006E0664A203A70
:1009500012688243644B203B1A60704739B1624A87
:100960001C3A12680243604B1C3B1A6006E05E4A68
:100970001C3A126882435C4B1C3B1A60704739B1C9
:10098000594A143A12680243574B143B1A6006E066
:10099000554A143A12688243534B143B1A6070470D
:1009A00039B1514A103A126802434F4B103B1A605A
:1009B00006E04D4A103A126882434B4B103B1A60D6
:1009C000704739B1484A1C3212680243464B1C3307
:1009D0001A6006E0444A1C3212688243424B1C33C0
:1009E0001A60704739B1404A2032126802433E4BC8
:1009F00020331A6006E03C4A2032126882433A4BA8
:100A000020331A60704739B1374A243212680243E2
:100A1000354B24331A6006E0334A2432126882438D
:100A2000314B24331A60704739B12F4A2C32126887
:100A300002432D4B2C331A6006E02B4A2C321268ED
:100A40008243294B2C331A60704739B1264A303221
:100A500012680243244B30331A6006E0224A3032D7
:100A600012688243204B30331A607047012808D146
:100A70001D493C31096841F008011B4A3C321160B4
:100A800007E019493C31096821F00801164A3C3257
:100A90001160704739B1144A273A12780243124B59
:100AA000273B1A7006E0104A273A127882430E4B11
:100AB000273B1A7070470C484030006840F0807047
:100AC000094940310860704701460020064A283A2B
:100AD00012680A400AB1012000E000207047024974
:100AE00026390870704700003438024010B50446BB
:100AF0009848844208D101210846FFF70DFF0021E4
:100B00000120FFF709FF76E09348844208D10121D4
:100B10000220FFF701FF00210220FFF7FDFE6AE03F
:100B20008E48844208D101210420FFF7F5FE002100
:100B30000420FFF7F1FE5EE08948844208D10121DC
:100B40000820FFF7E9FE00210820FFF7E5FE52E04C
:100B50008448844208D101211020FFF7DDFE0021E6
:100B60001020FFF7D9FE46E07F48844208D10121DA
:100B70002020FFF7D1FE00212020FFF7CDFE3AE034
:100B80007A48844208D101214020FFF7C5FE0021A8
:100B90004020FFF7C1FE2EE07548844208D10121B4
:100BA0008020FFF7B9FE00218020FFF7B5FE22E08C
:100BB0007048844208D101218015FFF7ADFE002165
:100BC000A015FFF7A9FE16E06B48844208D1012169
:100BD0004015FFF7A1FE00216015FFF79DFE0AE01A
:100BE0006648844207D101210015FFF795FE0021D8
:100BF0002015FFF791FE10BDF0B50A460021002335
:100C0000002400BF3DE0012505FA01F3156805EA5F
:100C100003049C4234D105684F000326BE40B5430F
:100C2000056015794E00B5400668354305601579B5
:100C3000012D02D01579022D16D185684F000326AB
:100C4000BE40B543856055794E00B5408668354352
:100C50008560456801268E40B543456045689679B4
:100C60008E40B6B235434560C5684F000326BE408E
:100C7000B543C560D5794E00B540C6683543C560FB
:100C8000491C1029BFD3F0BD4FF6FF710160002150
:100C9000017141718171C171704708B54FF48032A3
:100CA0000092009A0A430092009AC261C161009AC0
:100CB000C261C2690092C269009208BD024600206A
:100CC00013690B400BB1012000E000207047014682
:100CD000086980B270470246002053690B400BB18F
:100CE000012000E0002070470146486980B270474B
:100CF00001837047418370470AB1018300E041835B
:100D000070474161704742694A4042617047F0B59F
:100D1000002300244D07ED0E02FA05F3CE1000F17A
:100D2000200555F826504E07F70E0F26BE40B54356
:100D3000CF1000F1200646F82750CE1000F1200514
:100D400055F8265045EA0304CE1000F1200545F879
:100D50002640F0BD000002400004024000080240AE
:100D6000000C024000100240001402400018024033
:100D7000001C0240002002400024024000280240E3
:100D800010B50446F848844209D101214805FFF70F
:100D9000F6FD00214FF40010FFF7F1FD18E0F348D5
:100DA000844209D101218805FFF7E9FD00214FF4B4
:100DB0008000FFF7E4FD0BE0ED48844208D10121FB
:100DC000C805FFF7DCFD00214FF40000FFF7D7FD59
:100DD00010BD2DE9FF4704460D460026B146042705
:100DE000DFF89083A6884FF6C07006406846FFF78C
:100DF00059FCDDF80880E048B8FBF0F01FFA80F9F4
:100E000046EA0906A68020884FF6FE710840208039
:100E10000026DA49286888420CD828684000B8FBC8
:100E2000F0F087B2042F00DA04273E4309F10100F5
:100E3000208427E0E8884BF6FF71884206D12868B5
:100E400000EB4000B8FBF0F087B209E0286800EB47
:100E5000C00101EB0010B8FBF0F087B247F4804707
:100E6000C7F30B0008B947F0010747F400400643F9
:100E70004FF4967009FB00F04FF47A7190FBF1F09B
:100E8000401C2084A683208840F001002080268812
:100E90004FF6F5300640A888698908430643268046
:100EA000A889298908432081BDE8FF8741F288315C
:100EB0000160002181804BF6FF71C180002101811A
:100EC00041814FF480418181704721B1028842F015
:100ED0000102028004E002884FF6FE731A4002808D
:100EE000704729B1828C4FF6EF731A40828403E079
:100EF000828C42F01002828470470A460021818C65
:100F00004FF6F073194002F00F03194381847047C4
:100F100021B1028842F48072028004E002884FF618
:100F2000FF631A400280704721B1028842F40072C8
:100F3000028004E002884FF6FF531A400280704797
:100F400012B141F0010101E001F0FE0101827047A0
:100F500021B1028842F48062028004E002884FF6E8
:100F6000FF331A40028070470A46002181894FF6FC
:100F70000173194002F0FE0319438181704721B1CA
:100F8000828942F00102828104E082894FF6FE7379
:100F90001A408281704721B1028842F040020280EB
:100FA00004E002884FF6BF731A400280704721B1F7
:100FB000028842F40042028003E00288C2F30E027B
:100FC0000280704721B9028842F08002028004E06A
:100FD00002884FF67F731A4002807047B1F5804F48
:100FE00005D0828B4BF6FF731A40828303E0828B1D
:100FF00042F4804282837047B1F5006F04D10288C9
:1010000042F40062028004E002884FF2FF731A404B
:1010100002807047B1F5005F04D1028842F40052AB
:10102000028004E002884DF6FF731A400280704788
:1010300021B1028842F01002028004E002884FF6DB
:10104000EF731A4002807047018270470146088A98
:10105000C0B2704721B1028842F48052028004E09D
:1010600002884EF6FF731A4002807047B1F5006F98
:1010700004D1028842F40062028004E002884FF248
:10108000FF731A400280704721B1028842F02002AB
:10109000028004E002884FF6DF731A400280704736
:1010A0000146088B0012704721B1828842F4006229
:1010B000828004E082884FF2FF731A40828070477A
:1010C00021B1828842F48052828004E082884EF608
:1010D000FF731A408280704708B5024600200090D6
:1010E00000920098084400900098008808BD1AB14A
:1010F00083880B43838002E083888B43838070471F
:1011000070B502460024002500230020958A138B29
:101110001B0445EA030626F07F4404EA01068E42DA
:1011200001D1012000E0002070BD10B50146002073
:10113000002300228B8A0A8B120443EA020424F063
:101140007F4010BD0CB502460020002301930093A0
:1011500000920B0F019321F07F41019B83B1009B13
:101160001433009310E00000005400400058004089
:10117000005C004000127A0040420F00A08601008F
:10118000090C009B18330093009B1B680B400BB1AC
:10119000012000E000200CBD002221F07F42D3435B
:1011A0008382704730B5024600200023948801F006
:1011B000E06504EA154321F07F41948A0C4014B1A4
:1011C0000BB1012000E0002030BD002221F07F4261
:1011D000D34383827047000010B50446FB48844225
:1011E00008D101218014FFF7DBFB0021A014FFF7D9
:1011F000D7FB3CE0F648844208D101210014FFF7F8
:10120000BEFB00212014FFF7BAFB30E0F148844216
:1012100008D10121C013FFF7B2FB0021E013FFF753
:10122000AEFB24E0EC48844208D101214014FFF7D2
:10123000B7FB00216014FFF7B3FB18E0E7488442D6
:1012400009D101210805FFF7ABFB00214FF4801005
:10125000FFF7A6FB0BE0E248844208D101214805D4
:10126000FFF79EFB00214FF40010FFF799FB10BD24
:1012700010B50022028802F441520B884C882343A7
:101280008C882343CC8823430C8923434C892343F4
:101290008C892343CC8923431A430280838B4FF2EA
:1012A000FF74234083830B8A038210BD2DE9F04F26
:1012B0000025022300244FF0010900220026002708
:1012C00094469046B0F81CA04FF2400B0AEA0B0A75
:1012D000A0F81CA04FF0020AA0F820A0858BD1F83E
:1012E00008A0BAF1020F01D100BF82E0B1F804A05A
:1012F000BAF1000F02D14FF0010901E04FF00209ED
:10130000DFF8E0A2DAF800A00AF4000ABAF1000F50
:1013100009D0DFF8D0A2DAF800A02AF4000ADFF83A
:10132000C4B2CBF800A0DFF8BCA20AF17C0ADAF85C
:1013300000A0CAF3881CDFF8ACA20AF17C0ADAF834
:1013400000A0CAF30278DFF89CA2AAF1040ADAF836
:1013500000A00AF03F07DFF88CA2AAF1040ADAF82D
:1013600000A00AF4800ABAF5800F08D1DFF878A24D
:10137000BAFBF7FA0AFB0CFABAFBF8F607E0DFF85B
:101380006CA2BAFBF7FA0AFB0CFABAFBF8F6B1F852
:1013900006A0BAF5007F0ED14FEA162A0AEB8A0A98
:1013A0004FEA4A0AD1F808B0BAFBFBFA0AF1050A7B
:1013B0001FFA8AF20FE04FEA491AB6FBFAFA0AEB73
:1013C0008A0A4FEA4A0AD1F808B0BAFBFBFA0AF1D6
:1013D000050A1FFA8AF24FF00A0AB2FBFAF202F08B
:1013E0000104A2EB040ACAF34F034FF6FF7A0AEA9C
:1013F0000424022B01DBFF2B01DD02230024B1F8C2
:1014000006A04AEA040A4AEA030AA0F820A0B1F8B2
:1014100004A0B1F80CB04AEA0B0AB1F802B04AEAEB
:101420000B0AB1F800B04AEA0B0A4AF4006A4AEA29
:1014300005058583BDE8F08F002101804180818012
:10144000C180018141818181C18107210182704771
:101450000021018041808180C180022181600021C2
:101460008181704721B1028842F04002028004E08D
:1014700002884FF6BF731A400280704721B1828BF9
:1014800042F48062828304E0828B4FF6FF331A407D
:101490008283704702884FF2FF731A4002800288ED
:1014A0000A4302807047B1F5804F04D1028842F4AC
:1014B0008042028004E002884BF6FF731A400280EB
:1014C00070474FF6FF62914204D0028842F4807266
:1014D000028004E002884FF6FF631A4002807047E2
:1014E00021B1828842F00402828004E082884FF6B3
:1014F000FB731A408280704721B1828842F010024B
:10150000828004E082884FF6EF731A408280704731
:1015100030B500220023848B4FF240052C40848399
:1015200002240484828B0C88B4F5007F01D00C88DF
:1015300014B94FF4807308E00C88B4F5407F03D0F1
:101540000C88B4F5807F00D100238C888D892C43D2
:101550004D882C431C4344F400642243828330BDF5
:101560000146888970478181704721B1028842F421
:101570000052028004E002884DF6FF731A40028098
:101580007047018841F48051018070470246002075
:10159000012901D0108B00E0908A70470146088A2B
:1015A00070471AB183880B43838002E083888B43A2
:1015B0008380704730B5002400230C110125A5401D
:1015C000ABB2AAB185881D43858014E0003001408C
:1015D00000380040003C0040003401400050014011
:1015E000005401400838024000127A000024F40040
:1015F00085889D43858030BD0246002013890B40BD
:101600000BB1012000E000207047CA4302817047FF
:10161000F0B50246002000240023002501F00F074A
:101620000126BE40B4B20B1101269E40B3B296888B
:1016300006EA03051689264016B10DB1012000E027
:101640000020F0BD10B5002201F00F040123A340DB
:101650009AB2D343038110BD10B50446FA488442C0
:1016600008D101211020FFF79BF900211020FFF77E
:1016700097F957E0F548844209D101214804FFF762
:101680007EF900214FF40030FFF779F94AE0F04885
:10169000844209D101218804FFF771F900214FF438
:1016A0008020FFF76CF93DE0EA48844209D101212E
:1016B000C804FFF764F900214FF40020FFF75FF939
:1016C00030E0E548844209D101210805FFF757F9C8
:1016D00000214FF48010FFF752F923E0DF488442E5
:1016E00008D101212020FFF75BF900212020FFF71E
:1016F00057F917E0DA48844209D101218807FFF73A
:101700003EF900214FF08040FFF739F90AE0D54853
:10171000844207D101214005FFF731F9002160051E
:10172000FFF72DF910BD2DE9FF4705460E460024B1
:10173000A14600BFA046B08900B100BF2C8A24F4A6
:101740004054F08804432C82AC8941F20C608443FD
:10175000B08831890843718908430443AC81AC8A5D
:1017600024F44074B0890443AC826846FEF79AFFC3
:10177000B548854202D0B948854202D1DDF80C90C7
:1017800001E0DDF80890A88900F4004040B109EBC1
:10179000C90000EB091031684900B0FBF1F707E020
:1017A00009EBC90000EB091031688900B0FBF1F7C3
:1017B0006420B7FBF0F004012009642101FB1078DC
:1017C000A88900F4004040B1322000EBC800B0FB13
:1017D000F1F000F00700044308E0322000EB0810AD
:1017E0006421B0FBF1F000F00F0004432C81BDE850
:1017F000FF874FF41651016000218180C180018173
:101800000C21418100218181704710B502460020E2
:10181000108A20F470600B884C8823438C88234303
:10182000CC8823431843108210BD002101804180E1
:101830008180C180704721B1828942F40052828147
:1018400004E082894DF6FF731A4082817047028B53
:1018500002F47F420283028B0A430283704721B164
:10186000828942F40042828103E08289C2F30E023F
:101870008281704721B1828A42F40062828204E050
:10188000828A4FF2FF731A4082827047C1F30802C6
:101890008280704701468888C0F308007047028A3A
:1018A0004FF6F0731A400282028A0A43028270479E
:1018B00021B1828942F00202828104E082894FF6DE
:1018C000FD731A408281704782894FF2FF731A407C
:1018D000828182890A4382817047028A4FF6DF73D0
:1018E0001A400282028A0A430282704721B1028AA8
:1018F00042F48042028204E0028A4BF6FF731A40EF
:1019000002827047818941F001018181704721B1D4
:10191000828A42F00802828204E0828A4FF6F773DC
:101920001A4082827047028BD2B20283028B42EA53
:1019300001220283704721B1828A42F02002828212
:1019400004E0828A4FF6DF731A408282704721B129
:10195000828A42F01002828204E0828A4FF6EF739C
:101960001A4082827047828A4FF6FB731A40828245
:10197000828A0A438282704721B1828A42F002023F
:10198000828204E0828A4FF6FD731A408282704799
:101990001AB1838A0B43838202E0838A8B4383825A
:1019A0007047F0B50346002400260025002040F6CD
:1019B0006A17B94200D100BF1846C1F3421401F0C2
:1019C0001F06012707FA06F5012C01D10C3004E0AF
:1019D000022C01D1103000E014301AB107682F43F7
:1019E000076002E00768AF430760F0BD02460020D1
:1019F000B1F5007F00D100BF13880B400BB101206F
:101A000000E00020704701F40072B2F5007F00D1C1
:101A100000BFCA430280704770B50246002400230D
:101A20000025002040F66A16B14200D100BFC1F384
:101A3000421501F01F03012606FA03F3012D13D10D
:101A40009689334017E00000001001400044004038
:101A500000480040004C004000500040001401408D
:101A600000780040007C0040022D02D1168A3340ED
:101A700001E0968A33400C12012606FA04F4168817
:101A8000344013B10CB1012000E0002070BD10B54E
:101A90000022002340F66A14A14200D100BF0A12BE
:101AA00001249440A3B2DC43048010BD10B5012191
:101AB0008803FEF775FF00214FF48040FEF770FFAA
:101AC00010BD1C49086070471B490862704730B55B
:101AD00000228B071C0F0F2303FA04F2154B083367
:101AE0008C1053F824309343124C08348D1044F872
:101AF000253023468C1053F824308C07240F00FA2D
:101B000004F423430B4C08348D1044F8253030BDC9
:101B10000949DC31086070470849086070470020B7
:101B200004492031096801F4807109B1012000E005
:101B3000002070470038014000002742000427427F
:101B400030B943F2DB028100A1F1C0410A6005E037
:101B500043F2D2028100A1F1C0410A606FF07042ED
:101B6000411C8900A1F1C0410A608100A1F1C0417E
:101B7000C1F8042170470021D0E901231A43C3684A
:101B80001A4303691A4343691A4383691A43C369B1
:101B90001A43036A1A43436A1A43836A1A43C36A9D
:101BA0001A43036B1A43436B1A4303689B00A3F168
:101BB000C0431A608268082A0BD102689200A2F121
:101BC000C042126842F0400302689200A2F1C04293
:101BD0001360426BB2F5801F19D10268BAB14FF0A1
:101BE0002042526822F470014FF020421268436B89
:101BF0001A434FF020431A601A46126842F480726A
:101C00001A60826B128A521E41EA02525A60826B3B
:101C10001268836B5B6842EA0312836B9B6842EA3B
:101C20000322836B9B8942EA0342836B1B8A42EA4D
:101C30000352836B1B7D42EA0362836B9B691A43E9
:101C400003685B1C9B00A3F1C0431A60826AB2F573
:101C5000804F1BD1C26B1268C36B5B6842EA0312F0
:101C6000C36B9B6842EA0322C36B1B8A42EA03529E
:101C7000C36B1B7D42EA0362C36B9B691A43036813
:101C80009B00A3F1C043C3F8042107E06FF0704349
:101C900002689200A2F1C042C2F8043170470021EC
:101CA000016002214160002181601021C16000219A
:101CB0000161C16241618161C1614FF48051016282
:101CC000490041620021816201634163F8498163F7
:101CD000C163704751B18200A2F1C042126842F064
:101CE00001038200A2F1C042136009E08200A2F168
:101CF000C0421268EF4B1A408300A3F1C0431A6040
:101D0000704710280AD118214FF020421166402157
:101D100051664FF0FC319166D16610E01821E64A19
:101D2000116040214FF02042C2F884104FF0FC3186
:101D3000E14A083211604FF02042C2F88C1070471F
:101D400030B5002100220023446844F0080485686F
:101D50002C43C5682C4305692C43456944EA452456
:101D6000856944EA4531C4692468C5696D6844EAF7
:101D70000524C5692D8944EA0544C5692D7B44EADB
:101D80000562046A2468056A6D6844EA0524056AE8
:101D90002D8944EA0544056A2D7B44EA05630468FD
:101DA000102C05D14FF020442166A266E36608E0BE
:101DB000C14C21604FF02044C4F88820BE4C0C3444
:101DC000236030BD1021016000214160102181603D
:101DD0000021C160016141618161FC21C269116022
:101DE000C2695160C2699160C269D160026A1160C2
:101DF000026A5160026A9160026AD160704799B1CB
:101E0000102808D14FF02042126E42F004024FF029
:101E100020431A661DE0A84A126842F004024FF0FF
:101E20002043C3F8802014E0102809D14FF020424D
:101E3000126EA04BDB1E1A404FF020431A6608E0DA
:101E40009D4A12689B4BDB1E1A404FF02043C3F89B
:101E50008020704799B1102808D14FF02042126EAF
:101E600042F040024FF020431A661DE0924A126889
:101E700042F040024FF02043C3F8802014E01028C5
:101E800009D14FF02042126E8A4B3F3B1A404FF06F
:101E900020431A6608E0884A1268864B3F3B1A4086
:101EA0004FF02043C3F880207047014600201029DE
:101EB00003D14FF02042506F02E07F4A1432106885
:101EC000704718207C492031086000200906C1F8BD
:101ED000A4004FF0FC30784928310860091D0860E3
:101EE000091D08607047016841F01001426841EA2D
:101EF0004221826841EA42316F4A20321160C16852
:101F00000968C268526841EA0221C268128941EA3E
:101F10000241C268127B41EA0261674A28321160BD
:101F2000016909680269526841EA0221026912895D
:101F300041EA02410269127B41EA02615E4A2C32A7
:101F40001160416909684269526841EA02214269A7
:101F5000128941EA02414269127B41EA02614FF073
:101F60002042C2F8B01070470021016041608160DA
:101F7000FC21C2681160C2685160C2689160C26889
:101F8000D160026911600269516002699160026961
:101F9000D160426911604269516042699160426951
:101FA000D160704748B144492031096841F00401CB
:101FB0004FF02042C2F8A01009E03F4920310968E3
:101FC0003C4AD21E11404FF02042C2F8A010704788
:101FD0004FF434728100A1F1C041C1F840216FF08B
:101FE00070423549C83141F820200021324AD032B0
:101FF00011605206C2F854112F4AD832116070474E
:1020000070B50021002200230024D0E90156354399
:10201000C6683543066935434669354386693543A5
:10202000C6693543066A3543466A45EA06010568CE
:1020300035B90568AD00A5F1C045C5F840110EE001
:10204000D0E907563543466A45EA06031A4DC035BE
:102050002B600568AD00A5F1C045C5F840110568C5
:1020600065BB856A2D686D1E866A7668761E45EAB0
:102070000616856AAD686D1E46EA0526856AED6816
:102080006D1E46EA0536856A2D8A6D1E46EA0546AE
:10209000856AAD8A6D1E46EA0556856A2D7E6D1EDF
:1020A00046EA0562044DC835066845F8262026E054
:1020B000540C0108FEFF0F00800000A0FFE7856AB6
:1020C0002D686D1E866A7668761E45EA0616856A54
:1020D000AD686D1E46EA0526856A2D8A6D1E46EAA4
:1020E0000542856AED686D1E2E03856AAD8A6D1EF8
:1020F00046EA0554BD4D2C60066845F8262070BDA3
:1021000000210160416081601021C16040210161B6
:1021100080214161890081610021C16101624162C8
:102120001021826A1160826A5160826A9160826ABB
:10213000D160826A1161826A5161826A91617047DD
:102140000021D0E900231A4383685B1E42EA431250
:10215000C36842EA4321A54A08321160704701462C
:10216000002029B9A14A1032126802F0060005E0E9
:102170009E4A1032126802F01802900870479B497C
:102180000C31096841EA40014FF02042C2F8541175
:10219000704796490831096841EA40114FF02042E2
:1021A000C2F85011704761B18200A2F1C042D2F86A
:1021B000402142F400738200A2F1C042C2F84031D3
:1021C0000CE08200A2F1C042D2F8402147F6FF5352
:1021D0001A408300A3F1C043C3F84021704710B5F3
:1021E00052B3102807D14FF020435B6E0B434FF0E2
:1021F000204463664AE0B0F5807F08D17B4BC43B46
:102200001B680B434FF02044C4F884303EE0B0F527
:10221000805F08D1754BA43B1B680B434FF02044F3
:10222000C4F8A43032E0714B0C331B680B434FF001
:102230002044C4F8543129E0102807D14FF020433E
:102240005B6E8B434FF0204463661FE0B0F5807FE8
:1022500008D1664BC43B1B688B434FF02044C4F845
:10226000843013E0B0F5805F08D1604BA43B1B685D
:102270008B434FF02044C4F8A43007E05B4B0C3391
:102280001B688B434FF02044C4F8543110BD10B587
:10229000024600200023102A03D14FF02044636E31
:1022A00010E0B2F5807F03D1504CC43C236809E0B4
:1022B000B2F5805F03D14D4CA43C236802E04B4C47
:1022C0001034236803EA01048C4201D0002000E0AE
:1022D000012010BD102807D14FF02042526E8A43D2
:1022E0004FF020435A661FE0B0F5807F08D13F4A87
:1022F000C43A12688A434FF02043C3F8842013E0A5
:10230000B0F5805F08D1394AA43A12688A434FF089
:102310002043C3F8A42007E0344A0C3212688A43F1
:102320004FF02043C3F854217047F0B50246002017
:102330000023002400250026102A03D14FF0204757
:102340007B6E13E0B2F5807F03D1284FC43F3B681A
:102350000CE0B2F5805F03D1244FA43F3B6805E059
:10236000224F0C373B68FF06D7F8584103EA0106B5
:102370000AB1012A02D104F0010501E003EAD10506
:1023800015B10EB1012000E00020F0BD102808D1E9
:102390004FF02042526E22EAD1024FF020435A669B
:1023A00022E0B0F5807F09D1104AC43A126822EACF
:1023B000D1024FF02043C3F8842015E0B0F5805FD0
:1023C00009D10A4AA43A126822EAD1024FF0204306
:1023D000C3F8A42008E0054A0C32126842F001025A
:1023E0004FF02043C3F8542170470000480100A07B
:1023F00010B501218806FEF7D3FA00214FF0806066
:10240000FEF7CEFA10BDF0B5002100220023002413
:1024100000250026FE4F3F68DFF8F8C307EA0C07E7
:10242000DFF8ECC3CCF80070078A390467463F68D0
:10243000D0F814C04CEA010C47EA0C07DFF8D0C30F
:10244000CCF800700CF104073F68DFF8C8C307EA56
:102450000C07DFF8BCC30CF1040CCCF80070078B40
:102460003A0467463F68D0F81CC04CEA020C47EAC1
:102470000C07DFF89CC30CF1040CCCF800700CF1D5
:1024800004073F68DFF88CC307EA0C07DFF880C356
:102490000CF1080CCCF80070078C3B0467463F68D1
:1024A000D0F824C04CEA030C47EA0C07DFF860C3FD
:1024B0000CF1080CCCF800700CF104073F68DFF851
:1024C00054C307EA0C07DFF848C30CF10C0CCCF836
:1024D0000070078D3C046746D7F800C0C76A2743E1
:1024E0004CEA070CCA4F0C37C7F800C03F1D3F68C5
:1024F000DFF824C307EA0C07DFF814C30CF1100C53
:10250000CCF80070D0E9007C47EA0C07D0F808C08E
:1025100047EA0C07D0F80CC047EA0C07DFF8F0C216
:102520000CF1100CDCF800C047EA0C07DFF8E0C241
:102530000CF1100CCCF80070476B3D02078E3E0486
:10254000B34F24373F6807F07F47DFF8C4C20CF170
:10255000240CCCF8007046EA0507D0F838C047EAEA
:102560000C07DFF8ACC20CF1240CDCF800C047EA21
:102570000C07DFF89CC20CF1240CCCF80070F0BD05
:102580000021016041608160C16001614161816140
:10259000C161016241628162C16201634163816321
:1025A000704740B19A491031096841F00101984AD9
:1025B0001032116007E096491031096821F00101DD
:1025C000934A10321160704740B191491031096847
:1025D00041F480318E4A1032116007E08C4910318D
:1025E000096821F480318A4A1032116070470EB5B3
:1025F000874910310968884A1140854A10321160B4
:1026000011460968C1F30211009111460968C1F32E
:102610000221019111460968C1F3023102919DE83E
:102620000E0080E80E000EBD022101604160816055
:102630007047774938310860704775491C31086028
:1026400070472DE9F04100240025002600220027D4
:102650000023B1F804C04FEA0C44D0F804C00CF4D5
:10266000704CC0F804C0D1F800C04CEA040CC0F8AB
:1026700004C0B1F80CC04FEA0C45D0F808C00CF407
:10268000704CC0F808C0D1F808C04CEA050CC0F87E
:1026900008C0D0F810C02CF0070CC0F810C0D1F85A
:1026A00010C0C0F810C0D1F81CC04FEA0C26B1F819
:1026B00020C04FEA0C4291F824C04FEA0C67D0F8D2
:1026C00018C09C46C0F818C0D1F818C04CEA060CD7
:1026D0004CEA020C4CEA070CC0F818C0D0F814C041
:1026E0002CF0FF0CC0F814C0D1F814C0C0F814C00E
:1026F000D0F81CC040F207782CEA080CC0F81CC0C7
:10270000D1E90AC84CEA080CC0F81CC0D0F828C0AF
:102710009C46C0F828C0D1F830C0C0F828C0B1F835
:1027200038C04FEA0C43D0F82CC00CF0E02CC0F8B5
:102730002CC0D1F834C04CEA030CC0F82CC0D0F83F
:1027400030C06FF30A0CC0F830C0D1F83CC0C0F8FC
:1027500030C0BDE8F0810021016041608160C1604E
:102760000161FF21416100218161C161016241621A
:102770004FF4C06181620721C1620021016341639E
:102780008163C163704721B1026842F001020260B7
:1027900003E0026822F00102026070470CB51C4998
:1027A0003C31096800211A4A3C321160114609681F
:1027B000090C00911146096889B20191DDE9001206
:1027C000C0E900120CBD0021016041607047014664
:1027D0000F4A403212680A400AB1012000E000208E
:1027E000704770B500230024C2B1056845F00205AA
:1027F00005604D682B020D892C04C56805F07F45E6
:10280000C560C6680D681D4325432E43C66009E0B8
:102810000868014000F800F08F88FE0F056825F079
:10282000020505600125934E356070BD00210160F1
:1028300041608160704721B1026842F0100202607D
:1028400003E0026822F0100202600122894B1A6044
:10285000704730B50022002300248D682A028D893C
:102860002B040D782C064D68254315431D43056444
:1028700030BD0021016041608160C16070472DE979
:10288000F0410B461446D0F8048008F47048C0F8B4
:102890000480D0F8088008F47048C0F80880DFF899
:1028A000D481A8F11808D8F800104FF0010808EBFF
:1028B000114808EB03051FFA81F808F1010808EB3D
:1028C0000406016909B904220EE0012901D103229D
:1028D0000AE0042905D0022903D0032901D00729E1
:1028E00001D1022200E00122C16AC1F30C08A8F163
:1028F0000308B8FBF2F8A844A8F1010C016BC1F37E
:102900000A08B044A8F1010745EA0C48C0F8048061
:1029100046EA0748C0F80880BDE8F0814161704789
:10292000816270472DE9F0430B461446016909B9ED
:1029300004220EE0012901D103220AE0042905D076
:10294000022903D0032901D0072901D1022200E086
:1029500001224168C1F30C0503EB0508A8F101074A
:102960008168C1F30C0604EB0608A8F1010C45EAE6
:102970000748C0F8048046EA0C48C0F8088003FB0A
:1029800002F808F1030803FB02F948EA0948C0F815
:102990002C800463BDE8F08330B50346186908B99C
:1029A00004220EE0012801D103220AE0042805D008
:1029B000022803D0032801D0072801D1022200E019
:1029C0000122DC6A200CB0FBF2F009B904220EE00F
:1029D000012901D103220AE0042905D0022903D0EC
:1029E000032901D0072901D1022200E0012200FBC6
:1029F00002F4E41C00FB02F544EA0544DC621961C0
:102A000030BD39B11B4A103212680243194B1033E2
:102A10001A6006E0174A103212688243154B1033D1
:102A20001A60704701460020124A143212680A40A8
:102A30000AB1012000E0002070470E4918310860FB
:102A40007047014600200B4A143212680A400AB14E
:102A5000012000E00020074A103212680A4012B13B
:102A600008B1012000E000207047024918310860D9
:102A70007047000024680140002041490860091D9A
:102A80000860091D0860091D08603E483C49143172
:102A90000860704700213A498279002A3AD00A46F4
:102AA000126803689A430B461A600A1D126803688D
:102AB0009A430B1D1A60027911440A6803681A438D
:102AC0000A602F4A0832126803689A432C4B083375
:102AD0001A601A1D126803689A43294B0C331A6056
:102AE0004279102A0ED11A1F126803681A43244B28
:102AF00008331A601A1D126803681A43204B0C33FE
:102B00001A600DE01E49427911440A6803681A43AD
:102B10000A6005E0027911440A6803689A430A6072
:102B200070470021016001710C2141710021817108
:102B300070471349103109680143114A103211607E
:102B40007047014600200E4A143212680A400AB14A
:102B5000012000E0002070470949143108607047E7
:102B600001460020064A143212680A400AB10120C8
:102B700000E00020704702491431086070470000EF
:102B8000003C0140FFFF7F0010B501210802FDF766
:102B900007FF00214FF48070FDF702FF10BD30B534
:102BA0000246002000235068F84C20400D790C6844
:102BB00044EA0524204350609068F54C2040D1E958
:102BC00003542C438D682C434D7944EA450420433B
:102BD0009060D06A20F470000C7D641EE4B2234340
:102BE00040EA0350D06230BD0021016001714171A3
:102BF0008160C16001610121017570470021E54AD2
:102C00001168E54A1140D0E900231A4383681A434A
:102C1000C3681A431143E14AC2F804137047002104
:102C2000016041608160C160704721B1826842F0FB
:102C30000102826003E0826822F001028260704734
:102C40000A4600214168D64B194011434160704744
:102C50004162826270470A460021416821F01F01EB
:102C600011434160704738B1CA49096841F4000115
:102C7000CA4AC2F8041306E0C649096821F40001F3
:102C8000C64AC2F80413704738B1C249096841F412
:102C90008001C24AC2F8041306E0BE49096821F463
:102CA0008001BE4AC2F804137047F0B504460D46D1
:102CB00000200021092D11DDE068A5F10A0606EBD0
:102CC0004607072606FA07F18843A5F10A0606EB30
:102CD000460603FA06F10843E0600CE0206905EBC4
:102CE0004507072606FA07F1884305EB450603FA70
:102CF00006F108432061072A0FDA606B561E06EBC7
:102D000086071F2606FA07F18843561E06EB86063D
:102D100005FA06F10843606322E00D2A0FDA206B02
:102D2000D61F06EB86071F2606FA07F18843D61F33
:102D300006EB860605FA06F10843206310E0E06A18
:102D4000A2F10D0606EB86071F2606FA07F1884357
:102D5000A2F10D0606EB860605FA06F10843E062CD
:102D6000F0BD816841F080418160704701460020DC
:102D70008A6802F080420AB1012000E0002070471A
:102D800021B1826842F48062826003E0826822F4AA
:102D900080628260704721B1826842F002028260E4
:102DA00003E0826822F002028260704710B50A4692
:102DB00000210023416821F46041531E41EA433160
:102DC000416010BD21B1426842F40062426003E0FC
:102DD000426822F40062426070470146C86C80B2CB
:102DE00070476C48001D0068704721B1826842F44A
:102DF0008072826003E0826822F480728260704791
:102E000021B1826842F40072826003E0826822F499
:102E100000728260704738B15E49096841F4005120
:102E20005E4AC2F8041306E05A49096821F40051C9
:102E30005A4AC2F804137047F0B5044615460020FC
:102E400000220026092911DDE068A1F10A0707EB3D
:102E5000470C072707FA0CF29043A1F10A0707EB8A
:102E6000470703FA07F21043E0600CE0206901EB2A
:102E7000410C072707FA0CF2904301EB410703FAD4
:102E800007F210432061A06BC0F30156EF1C06F15E
:102E9000010CA7EB0C0707EB870C1F2707FA0CF2B6
:102EA0009043EF1C06F1010CA7EB0C0707EB87071B
:102EB00001FA07F21043A063F0BD10B50A460021E5
:102EC0000023816B21F44011531E41EA03518163B9
:102ED00010BD08B5002300930090009B0B440093A5
:102EE000009B1A6008BD0A460021816821F4702108
:102EF0001143816070470A460021816821F4401126
:102F0000114381607047816841F48001816070479E
:102F1000014600208A6802F480020AB1012000E024
:102F20000020704721B1426842F48062426003E0B1
:102F3000426822F480624260704721B1426842F4E4
:102F40008052426003E0426822F48052426070473F
:102F500008B5024600200090009201F12800009B75
:102F6000184400900098006880B208BD10B50B4668
:102F70000021D9B2012404FA01F11AB144680C43CA
:102F8000446002E044688C43446010BDFFFEFFFCD7
:102F9000FDF7FFC004230140E030FCFF00200140AA
:102FA000FFFD3FFF0246002013680B400BB10120DC
:102FB00000E000207047CA430260704770B50246C7
:102FC0000020002300240B12556801268E4005EADC
:102FD000060415681D4015B10CB1012000E0002069
:102FE00070BD00220A12D3430360704710B501215F
:102FF0000807FDF7C4FC00214FF08050FDF7BFFC2F
:1030000010BD57490862704701460020554A1068B4
:1030100020F0E00008431060704751490861704794
:103020004F49A031086070474D49A431086070478E
:10303000014600204B4A106820F4404008431060CD
:10304000704747490864704745494864704730B144
:103050004449096841F44021424A116005E0414970
:10306000096821F440213F4A1160704718B10121DD
:103070003B4AD16202E00021394AD162704718B15F
:103080000121374A916202E00021354A916270477E
:1030900033494862704710B502460020314B18682A
:1030A00040F60343984310432E4B18602E4B1B6889
:1030B00043F004032C4C2360012901D130BF00E010
:1030C00020BF294B1B6823F00403274C236010BD4D
:1030D00010B502460020234B186840F6034398437E
:1030E0001043204B1860204B1B6843F004031E4C18
:1030F0002360012901D130BF00E020BF1A4B1B68BB
:1031000023F00403184C236010BD1648006840F0FB
:103110000200144908601448006840F00400124995
:10312000086000BF00BF30BF7047014600200D4A55
:1031300052680A400AB1012000E000207047B0F553
:10314000402F06D00749096841EA8001054A11600D
:1031500005E00449496841F44021024A5160704742
:1031600000000E420070004010ED00E008B50022A3
:10317000009200200021CA22F94B1A6053221A60E3
:10318000F74A183A126822F0A002F54B183B1A6071
:1031900000BFF34A183A126802F02001009A521C4C
:1031A0000092009AB2F5003F01D00029F1D0EC4A1C
:1031B000183A126802F020020AB1012000E0002053
:1031C000FF22E74B1A6008BD08B5002200920020DC
:1031D0000021E34A183A126802F04002E2B9421EA6
:1031E000DF4B183B1A6000BFDD4A183A126802F044
:1031F0004001009A521C0092009AB2F5803F01D023
:103200000029F1D0D64A183A126802F040020AB1F9
:10321000012002E0002000E0012008BD38B50020B8
:10322000009000240025CA20CD4908605320086082
:10323000FFF7CAFF00B952E00020C94924390860ED
:1032400042F20110091D0860081D006800F0070027
:10325000091D086000BFC2481838006800F0040467
:103260000098401C00900098B0F5803F01D0002CE1
:10327000F1D0BB481838006800F0040008B90025F8
:103280002DE0B7481C3800680020B5491C3908609B
:103290004FF6FF70B24910390860B248091F086044
:1032A0000020AF490C390860091D0860091D08603D
:1032B000AB4908310860AA4918310860A849203193
:1032C0000860091D0860A64918390860A4491C3126
:1032D0000860FFF74BFF08B9002500E00125FF203B
:1032E0009F490860284638BD9D481838006820F07E
:1032F00080009B4918390860704730B504460025A6
:10330000CA209749086053200860FFF75DFF00B9A5
:103310001DE093481C38006820F0400090491C399B
:10332000086008460068216808438D491C39086018
:103330008B491439A068086008460068A18840EAF3
:103340000140874914390860FFF7CEFF0125FF20AF
:1033500083490860284630BD002101607F2141601B
:10336000FF218160704718B1FF217D4A116004E0A0
:10337000CA217B4A116053211160704730B5044661
:103380000025CA207649086053200860FFF71CFF1B
:1033900000B914E044B172481C38006840F01000D5
:1033A0006F491C39086007E06D481C38006820F040
:1033B00010006B491C390860FFF796FF0125FF20BC
:1033C00067490860284630BDCA21654A116053210B
:1033D000116040B162491C39096841F02001604A1E
:1033E0001C3A116007E05E491C39096801F0DF01F1
:1033F0005B4A1C3A1160FF21594A1160704701462F
:10340000002204E0501CC2B2A1F10A00C1B20A2994
:10341000F8DA100741EA10607047014600BF08095A
:1034200000EB8000420001F00F001044C0B2704772
:103430002DE9F04105460C460026002755B94848BD
:103440001C38006800F0400000B102E00020E0708D
:1034500000BF0EE042481C38006800F0400020B178
:103460002078FFF7DAFF064602E00020E07000BF98
:1034700000BF55B120780004617840EA0120A178AE
:103480000843E17840EA014611E02078FFF7B7FFF2
:103490004FEA00486078FFF7B2FF48EA0028A078BA
:1034A000FFF7ADFF48EA0008E07848EA0046CA2086
:1034B0002B49086053200860FFF786FE08B90027F3
:1034C00014E029483040264924390860FFF70CFFF2
:1034D00023481C38006800F0200030B9FFF746FE92
:1034E00008B9002702E0012700E00127FF201C495E
:1034F00008603846BDE8F0810021C170017041705C
:103500008170704770B506460C4600251448243873
:103510000068154900EA0105C5F305402070C5F3B0
:103520000620607005F07F00A07005F48000000C9C
:10353000E0705EB92078FFF770FF20706078FFF7C9
:103540006CFF6070A078FFF768FFA07070BD00206E
:103550000349091D086802492039096870470000BD
:1035600024280040FF007F007F7F7F002DE9F0418D
:1035700005460C46002600274DB9607800F0100083
:10358000102804D1607820F010000A30607005B96E
:1035900008E06078FFF741FF0646A078FFF73DFF9F
:1035A000064600BF55B1E0780004617840EA01208A
:1035B000A1780843217840EA413611E0E078FFF72E
:1035C0001EFF4FEA00486078FFF719FF48EA00281D
:1035D000A078FFF714FF48EA0008207848EA403650
:1035E000CA20FE49086053200860FFF7EDFD08B9C6
:1035F000002714E0FA483040F84920390860FFF706
:1036000073FEF6481C38006800F0200030B9FFF760
:10361000ADFD08B9002702E0012700E00127FF20E7
:10362000EE4908603846BDE8F081012101708170E3
:1036300041700021C170704770B506460C460025E8
:10364000E64820380068E64900EA0105280CE070E9
:10365000C5F30420607005F03F00A070C5F3423050
:1036600020705EB9E078FFF7D8FEE0706078FFF771
:10367000D4FE6070A078FFF7D0FEA07070BD2DE979
:10368000F04105460E46144600276DB9D3481C3854
:10369000006800F0400000B102E00020E07000BFD0
:1036A000A06800B91AE019E0CC481C38006800F0A6
:1036B000400020B12078FFF7B0FE074602E000206E
:1036C000E07000BFA06820B9207BFFF7A6FE074688
:1036D00004E0207BFFF7A1FE074600BF95B12078EC
:1036E0000004617840EA0120A1780843E17840EACB
:1036F0000140217B40EA0160A1680843616840EA1B
:1037000001071BE02078FFF77AFE4FEA0048607857
:10371000FFF775FE48EA0028A078FFF770FE48EA38
:103720000008E07848EA0048207BFFF768FE48EA96
:103730000060A1680843616840EA0107CA20A74900
:10374000086053200860B6F5807F03D1A34808388D
:10375000076002E0A148001F0760FF209F49086042
:10376000BDE8F0810021C1700170417081708160FD
:10377000012101730021416070472DE9F0410646A7
:103780000F4614460025B7F5807F03D193480838CB
:10379000056802E09148001F0568C5F305402070E8
:1037A000C5F30620607005F07F00A07005F480006E
:1037B000000CE070C5F30560207305F08040A06048
:1037C00005F0803060607EB92078FFF726FE20701B
:1037D0006078FFF722FE6070A078FFF71EFEA070F1
:1037E000207BFFF71AFE2073BDE8F08138B5024652
:1037F0000024009400230020CA24784D2C60532418
:103800002C6041B1754C1C3C24681443734D1C3D25
:103810002C6001201EE0714C1C3C246894436F4DC9
:103820001C3D2C6000BF6D4C183C246804EA122338
:10383000009C641C0094009CB4F5803F01D0002BD8
:10384000F1D0664C183C246804EA12240CB900201C
:1038500000E00120FF24614D2C6038BD30B500230D
:10386000CA245E4D2C6053242C6041EA0203B0F55B
:10387000807F03D1594C2034236002E0574C24341C
:103880002360FF24554D2C6030BD01460020B1F56A
:10389000807F05D1514A20321268C2F30E0004E045
:1038A0004E4A24321268C2F30E007047CA214B4AB6
:1038B00011605321116049491C39096821F0070141
:1038C000464A1C3A11601146096801431160FF2104
:1038D000424A11607047CA21404A11605321116069
:1038E0003E4910390860FF21116070473B4810388D
:1038F000006880B2704718B501460023009300228B
:103900000020CA23354C23605323236049B1334B35
:103910001C3B1B6843F48063304C1C3C236001203B
:103920001FE02E4B1C3B1B6823F480632B4C1C3C7C
:10393000236000BF294B183B1B6803F00402009B67
:103940005B1C0093009BB3F5803F01D0002AF1D0AF
:10395000224B183B1B6803F004030BB9002000E066
:103960000120FF231D4C236018BDCA221B4B1A6087
:1039700053221A60194A1C3A126822F48022174B0B
:103980001C3B1A601A46126840EA01031A43134BA3
:103990001C3B1A60FF22114B1A6070470F481C38FD
:1039A000006800F480207047CA220C4B1A60532232
:1039B0001A600A4A1C3A126822F4E002074B1C3BC8
:1039C0001A601A46126840EA01031A43034B1C3B73
:1039D0001A60FF22014B1A60704700002428004043
:1039E0003FFFFF0070B504460D460026CA20F64989
:1039F000086053200860FFF7E7FB00B907E044EADE
:103A00000500F1490C390860FFF76EFC0126FF2024
:103A1000ED490860304670BD30B504460025CA2027
:103A2000E949086053200860FFF7CEFB00B914E0B5
:103A300044B1E5481C38006840F08000E2491C3978
:103A4000086007E0E0481C38006820F08000DE498C
:103A50001C390860FFF748FC0125FF20DA4908609F
:103A6000284630BDCA21D84A11605321116040B1A7
:103A7000D5491C39096841F40001D34A1C3A116048
:103A800007E0D1491C39096821F40001CE4A1C3AEB
:103A90001160FF21CC4A11607047CA21CA4A1160E7
:103AA00053211160C8491C39096821F40021C64A14
:103AB0001C3A11601146096801431160FF21C24A96
:103AC0001160704770B5034600200024CA25BE4E21
:103AD000356053253560BC4D183D2D6805F48035A3
:103AE00055B100E0641CB84D183D2D6805F48035D3
:103AF00015B1B4F5003FF5D1B34D183D2D6805F46F
:103B000080353DB943EA01051543AF4E183635609F
:103B1000012000E00020FF25AB4E356070BD10B5E0
:103B20000A460021A84B1C3B1B6840F6080423EA08
:103B300004011AB140F40063194300E00143CA23B1
:103B4000A14C2360532323609F4B1C3B1960FF2330
:103B5000236010BD2DE9F04180460C461546002635
:103B6000002799480C300068984900EA01069648F9
:103B700010300068964900EA0107C6F3054020703E
:103B8000C6F30620607006F07F00A07006F4800087
:103B9000000CE0700020E870C7F30420687007F0A4
:103BA0003F00A870C7F342302870B8F1000F17D15A
:103BB0002078FFF732FC20706078FFF72EFC6070F1
:103BC000A078FFF72AFCA0706878FFF726FC6870E1
:103BD000A878FFF722FCA8702878FFF71EFC287051
:103BE000BDE8F081784814300068704741B9764AE2
:103BF0001C32126822EA4002734B1C331A6007E041
:103C0000714A1C32126842EA40026F4B1C331A6040
:103C1000704739B16C4A1C32126802436A4B1C333C
:103C20001A6006E0684A1C3212688243664B1C33F5
:103C30001A60704764491C31096821F4C051624A16
:103C40001C321160114609680143116070475E49DA
:103C50001C31096821F4E0615B4A1C321160114695
:103C6000096801431160704757491C31096821F404
:103C7000C041554A1C321160114609680143116068
:103C8000704740B150491C31096841F080014E4AEB
:103C90001C32116007E04C491C31096821F0800199
:103CA000494A1C321160704740B147491C310968CC
:103CB00021F40041444A1C32116007E042491C31A2
:103CC000096841F40041404A1C321160704708B550
:103CD000002200923C4A2C320092009A02EB8002B1
:103CE0000092009A116008BD08B5014600200090BE
:103CF00035482C300090009800EB8100009000982F
:103D0000006808BD30491C31096821F480312E4A11
:103D10001C321160114609680143116070472A493D
:103D20001C31096821F40031274A1C321160114608
:103D3000096801431160704723491C31096821F467
:103D40008021214A1C32116011460968014311602B
:103D50007047F0B504460D4600270026CA201A49D0
:103D600008605320086018481838006800F0080000
:103D700050B100E0761C14481838006800F00800C4
:103D800010B1B6F5805FF5D10F481838006800F023
:103D9000080098B90C481C38006800F0100058B9A9
:103DA00045EA0400084908310860FFF7DFF908B95F
:103DB000002704E0012702E0002700E00027FF20A1
:103DC000014908603846F0BD242800407F7F7F000D
:103DD0003FFFFF00CA223D4B1A6053221A6091B187
:103DE0003A4A1C3A126820F004031A43374B1C3B32
:103DF0001A60364A1C32126800F004031A43334B2F
:103E00001C331A6011E0314A1C3A126820F0040396
:103E10009A432E4B1C3B1A602C4A1C32126800F04D
:103E200004039A43294B1C331A60FF22274B1A6064
:103E3000704710B5014600200022244B183B1B6838
:103E4000234C03EA040202EA01030BB1012000E063
:103E5000002010BD81B241F080011C4A183A12685E
:103E600002F0800262EA0101184A183A11607047B4
:103E700030B50146002000220023144C1C34246875
:103E800004F00402114C1C3C24680C4002EAD135B9
:103E900044EA05030D4C183C246804EA11121BB1D6
:103EA00094B20CB1012000E0002030BD00210109D6
:103EB0008AB242F08002054B183B1B6803F0800376
:103EC00063EA0202014B183B1A6070472428004045
:103ED0007F3F010010B50446FE48844208D101210D
:103EE0000846FCF75DFD00210120FCF759FD9DE02F
:103EF000B4F1804F08D101210846FCF740FD0021B4
:103F00000120FCF73CFD91E0F348844208D10121F7
:103F10000220FCF734FD00210220FCF730FD85E093
:103F2000EE48844208D101210420FCF728FD00213D
:103F30000420FCF724FD79E0E948844208D10121FE
:103F40000820FCF71CFD00210820FCF718FD6DE09F
:103F5000E448844208D101211020FCF710FD002123
:103F60001020FCF70CFD61E0DF48844208D10121FC
:103F70002020FCF704FD00212020FCF700FD55E087
:103F8000DA48844208D101210220FCF709FD002112
:103F90000220FCF705FD49E0D548844209D1012102
:103FA0000804FCF7FDFC00214FF48030FCF7F8FC1E
:103FB0003CE0D048844209D101214804FCF7F0FCE0
:103FC00000214FF40030FCF7EBFC2FE0CA4884429C
:103FD00009D101218804FCF7E3FC00214FF4802083
:103FE000FCF7DEFC22E0C548844208D101214020D4
:103FF000FCF7C5FC00214020FCF7C1FC16E0C048DE
:10400000844208D101218020FCF7B9FC00218020E6
:10401000FCF7B5FC0AE0BB48844207D101218015BA
:10402000FCF7ADFC0021A015FCF7A9FC10BD002297
:104030000288A84B98420ED0AC4B98420BD0B0F1FE
:10404000804F08D0A44B984205D0A44B984202D090
:10405000A34B984204D14FF68F731A404B881A43F2
:10406000A04B984207D0A04B984204D04FF6FF4394
:104070001A400B891A4302804B68C3620B88038580
:10408000944B984202D0994B984201D18B7A038687
:104090000123838270474FF0FF314160002101808E
:1040A00001814180817270470185828270470A4692
:1040B000002101884FF68F7319401143018070472A
:1040C00041627047C16270470146486A70470146C5
:1040D000088D704721B1028842F00202028004E09C
:1040E00002884FF6FD731A400280704721B10288A2
:1040F00042F00402028004E002884FF6FB731A408B
:104100000280704721B1028842F08002028004E000
:1041100002884FF67F731A400280704702884FF67C
:10412000F7731A40028002880A43028070470288AF
:104130004FF6FF431A40028002880A43028070470C
:1041400021B1028842F00102028004E002884FF6A9
:10415000FE731A400280704770B5002400220023CD
:10416000058C4FF6FE7635400584028C8388048BDF
:104170004FF68F752C40B51E2C400D882C43751EB4
:104180002A408D892A434D882A43524DA84202D0A5
:10419000564DA84213D14FF6F7752A40CD892A43D0
:1041A0004FF6FB752A408D882A434FF6FF652B405A
:1041B0004FF6FF552B400D8A2B434D8A2B438380AE
:1041C00004838D684563028470BD70B500240022AD
:1041D0000023058C4FF6EF7635400584028C8388EA
:1041E000048B48F6FF752C404FF6FF452C400D8898
:1041F0004FF6FF7606EA05252C434FF6DF752A4079
:104200008D8906EA05152A434D8806EA05152A43D5
:10421000304DA84202D0354DA8421DD14FF67F75D2
:104220002A40CD894FF6FF7606EA05152A434FF658
:10423000BF752A408D8806EA05152A434FF6FF35DB
:104240002B404FF2FF752B400D8A06EA85052B4364
:104250004D8A06EA85052B43838004838D68856338
:10426000028470BD70B5002400220023058C4FF637
:10427000FF6635400584028C8388848B4FF68F75EA
:104280002C404FF6FC752C400D882C434FF6FF5503
:104290002A408D894FF6FF7606EA05252A434D8888
:1042A00006EA05252A430B4DA84202D00F4DA8422D
:1042B00038D14FF2FF752A40CD894FF6FF7606EAD6
:1042C00005252A434FF6FF352A408D8806EA052545
:1042D0002A4319E0000001400004004000080040AB
:1042E000000C004000100040001400400004014099
:1042F00000400140004401400048014000180040D7
:10430000001C0040002000404EF6FF752B404DF68B
:10431000FF752B400D8A06EA05152B434D8A06EAE8
:1043200005152B43838084838D68C563028470BD2B
:1043300070B5002200230024058C4EF6FF76354030
:104340000584038C8488828B48F6FF752A404FF6DB
:10435000FF452A400D884FF6FF7606EA05252A43D9
:104360004DF6FF752B408D8906EA05352B434D88A8
:1043700006EA05352B43FE4DA84202D0FD4DA8426A
:1043800008D14BF6FF752C400D8A4FF6FF7606EAF2
:1043900085152C43848082838D680564038470BDF9
:1043A000002101804180818081608181C181018201
:1043B0004182704770B5034600200024184618302B
:1043C00001258D40ACB21D8CA5431D8409B108297F
:1043D0000AD100EB610005684FF68F763540056025
:1043E0000568154305600FE00D1FC5F34E05284411
:1043F000056848F6FF763540056005684FF6FF769C
:1044000006EA02263543056070BD4163704781634B
:104410007047C1637047016470470A460021018BF1
:104420004FF68F7319401143018370470A460021EC
:10443000018B48F6FF7319404FF6FF7303EA02231E
:104440001943018370470A460021818B4FF68F7311
:1044500019401143818370470A460021818B48F639
:10446000FF7319404FF6FF7303EA02231943818358
:1044700070470A460021018B4FF6F773194011432C
:10448000018370470A460021018B4FF2FF731940E8
:104490004FF6FF7303EA02231943018370470A466C
:1044A0000021818B4FF6F7731940114381837047C8
:1044B0000A460021818B4FF2FF7319404FF6FF73BC
:1044C00003EA02231943818370470A460021018BC6
:1044D0004FF6FB7319401143018370470A460021D0
:1044E000018B4FF6FF3319404FF6FF7303EA0223A7
:1044F0001943018370470A460021818B4FF6FB73F5
:1045000019401143818370470A460021818B4FF681
:10451000FF3319404FF6FF7303EA022319438183E7
:1045200070470A460021018B4FF67F7319401143F3
:10453000018370470A460021018BC1F30E014FF63B
:10454000FF7303EA02231943018370470A460021DF
:10455000818B4FF67F7319401143818370470A4660
:104560000021818BC1F30E014FF6FF7303EA022392
:104570001943818370470A460021018C4FF6FD7371
:1045800019401143018470470A460021018C4FF6FF
:10459000F77319401143018470470A460021018CCA
:1045A0004FF6DF7319404FF6FF7303EA0213194306
:1045B000018470470A460021018C4FF67F73194031
:1045C0004FF6FF7303EA02131943018470470A464A
:1045D0000021018C4FF6FF5319404FF6FF7303EA99
:1045E00002231943018470470A460021018C4FF2CF
:1045F000FF7319404FF6FF7303EA02231943018446
:1046000070470A460021018C4DF6FF7319404FF6A2
:10461000FF7303EA023319430184704730B5002366
:1046200001248C40A3B2048C9C430484048C02FAC1
:1046300001F5ADB22C43048430BD30B50023042411
:104640008C40A3B2048C9C430484048C02FA01F5D0
:10465000ADB22C43048430BD828B4FF2FF331A403D
:104660008283828B4FF6FF7303EA01231A4382830E
:104670007047F0B50C461546002100220026078C35
:104680004EF6FF7C07EA0C070784818B028C4FF6FD
:10469000FF7707EA043640F6FF4739404FF6FF77C9
:1046A00007EA052739434FF6FF7707EA033739430F
:1046B00045F6FF773A4046F480573A4381830284B7
:1046C000F0BD828B4FF6F3731A408283828B0A43CC
:1046D00082837047F0B50C46154600210022002663
:1046E000078C4FF6FF6C07EA0C070784818B028C5E
:1046F0004FF6FF7707EA04264FF60C7739404FF65E
:10470000FF7707EA03172F4339434FF2FF573A4029
:1047100046F480773A4381830284F0BD028B4FF2E6
:10472000FF331A400283028B4FF6FF7303EA012323
:104730001A4302837047F0B50C461546002100224B
:104740000026078C4FF6EF7C07EA0C070784018BE5
:10475000028C4FF6FF7707EA041640F6FF47394010
:104760004FF6FF7707EA033739434FF6FF7703E049
:10477000000001400004014007EA052739434FF6D5
:104780005F773A4046F010073A4301830284F0BD58
:10479000028B4FF6F3731A400283028B0A430283A3
:1047A0007047F0B50C46154600210022068C4FF6E6
:1047B000FE773E400684018B028C4FF60C7631402A
:1047C0007E1C06EA03162E4331434FF6F57632403F
:1047D00044F00106324301830284F0BD70B5054602
:1047E0000C46208850B92389A28861882846FFF7A3
:1047F000D8FFE1882846FFF7CBFF25E02088042872
:104800000AD12389A28861882846FFF794FFE188AE
:104810002846FFF783FF17E0208808280AD123895C
:10482000A28861882846FFF755FFE1882846FFF7F0
:1048300048FF09E02389A28861882846FFF719FF0D
:10484000E1882846FFF708FF70BD00210180418004
:10485000012181800021C180018170472DE9F04153
:1048600005460C4600260127608808B9022600E0AC
:104870000026A088012801D1022700E00127208816
:10488000A0B92389A28861882846FFF78AFFE188BA
:104890002846FFF77DFF23893A4631462846FFF731
:1048A0004AFFE1882846FFF739FF13E02389A288F1
:1048B00061882846FFF73FFFE1882846FFF72EFF73
:1048C00023893A4631462846FFF76BFFE1882846A0
:1048D000FFF75EFFBDE8F0810146486B7047014677
:1048E000886B70470146C86B70470146086C70477B
:1048F0000A884B881A438B881A43CB881A430B8942
:104900001A434B891A438B891A43A0F844207047F5
:104910000021018041808180C180018141818181AC
:10492000704731B1B0F8442042F40042A0F844206E
:1049300005E0B0F84420C2F30E02A0F8442070470E
:1049400021B1828842F00402828004E082884FF61E
:10495000FB731A408280704721B1828842F00102C5
:10496000828004E082884FF6FE731A40828070478E
:104970001AB183890B43838102E083898B4383814E
:1049800070478182704702460020138A0B400BB1AA
:10499000012000E000207047CA430282704730B512
:1049A0000246002000230024158A05EA01039589A8
:1049B00005EA010413B10CB1012000E0002030BD74
:1049C000CA430282704741EA0203A0F848307047A8
:1049D0001AB183890B43838102E083898B438381EE
:1049E000704721B1828842F00802828004E0828808
:1049F0004FF6F7731A408280704701894FF6F872BC
:104A00001140018170470A46002101894FF68F73DA
:104A1000194011430181704730B504460D462946BF
:104A20002046FFF7F0FF208940F00700208130BDCD
:104A30002DE9F04104460D4616461F46602D06D16D
:104A40003B46012231462046FFF775FE05E03B4616
:104A5000012231462046FFF7A4FE29462046FFF7F3
:104A6000D2FF208940F007002081BDE8F08130B5F9
:104A70000C4600210189C9B24FF6FF7505EA0325EE
:104A8000154325432943018130BD2DE9F0410546F9
:104A90000E4617469846002443463A463146284675
:104AA000FFF7E5FF2C894FF6F870044044F0070447
:104AB0004FF68F70044044F070042C81BDE8F08103
:104AC000F0B504460D4616461F463B46324629467B
:104AD0002046FFF7CCFF208940F480402081F0BDC4
:104AE00082884FF68F731A40828082880A438280C0
:104AF000704702894FF6F8731A40028102890A430F
:104B00000281704702894FF67F731A400281028941
:104B10000A4302817047F0B50C4615461E46002137
:104B2000002200230189028B038C4FF6F87739406D
:104B300021434FF6FC473A4040F201173A434FF603
:104B4000DD773B404FF6FF7707EA06172F433B43DD
:104B5000018102830384F0BD21B1828842F080028A
:104B6000828004E082884FF67F731A40828070470B
:104B7000A0F850107047000010B5044604BB012196
:104B80000846FBF760FE01210420FBF75CFE0422CF
:104B90000821FD48FCF7BBF804220921FB48FCF77B
:104BA000B6F84FF48070FA490860F748FCF724F82B
:104BB0004FF40070F6490860F448FCF71DF813E064
:104BC000012C11D101218020FBF73DFE4FF4C07074
:104BD000EF49086004220721EE48FCF798F8042208
:104BE0000821EC48FCF793F8E949EA48FCF704F897
:104BF00010BD10B50446B4B901210220FBF723FE15
:104C00004FF44060E249086004220A21E248FCF7C0
:104C10007EF804220B21E048FCF779F8DC49DE48F5
:104C2000FBF7EAFF2EE0012C15D101212020FBF734
:104C30000AFE0320D649086004220021D748FCF769
:104C400066F804220121D548FCF761F8D049D34821
:104C5000FBF7D2FF16E0022C14D101218020FBF7D4
:104C6000F2FD3020CA49086004221146C948FCF709
:104C70004EF804220521C748FCF749F8C449C54845
:104C8000FBF7BAFF10BD10B5044601210220FBF767
:104C9000DAFD6CB9C020BE49086004220621BE4876
:104CA000FCF735F804220721BB48FCF730F820E078
:104CB000012C0ED14FF44070B54908600422082140
:104CC000B548FCF724F804220921B348FCF71FF883
:104CD0000FE0022C0DD14FF41070AD490860042292
:104CE0000621AD48FCF713F804220921AA48FCF775
:104CF0000EF8A749A848FBF77FFF10BD7FB5054612
:104D00000E4614460220A249087101208871C8711C
:104D100003204871A24885421FD101214805FBF7B5
:104D2000D9FD3046FFF7AFFF9E480068A04201D989
:104D30009C4804609B48006800904FF48040ADF8A8
:104D40000C000020ADF80400ADF80800ADF80A0032
:104D50004BF6FF70ADF8060044E0934885421FD142
:104D600001218805FBF7B6FD3046FFF742FF8D486D
:104D70004068A04201D98B4844608A48406800904E
:104D80004FF48040ADF80C000020ADF80400ADF801
:104D90000800ADF80A004BF6FF70ADF8060021E000
:104DA000824885421ED10121C805FBF793FD30469C
:104DB000FFF7E2FE7B488068A04201D97948846011
:104DC0007848806800904FF48040ADF80C000020D7
:104DD000ADF80400ADF80800ADF80A004BF6FF701E
:104DE000ADF8060000212846FCF76FF86946284612
:104DF000FBF7EFFF01212846FCF767F87FBD70B590
:104E0000044600212046FCF7A3F801212046FCF7C8
:104E10008BF844F620606649086004E06448006846
:104E2000401E6349086063492046FCF769F918B9D8
:104E30005F4800680028F1D12046FCF707F90546D5
:104E4000284670BD2DE9F04105460F4614461E4622
:104E500001212846FCF75CF844F6206054490860BC
:104E600008E053480068401E5149086010B901200D
:104E7000BDE8F08150492846FCF764F918B94C4860
:104E800000680028EDD11EB101214548FCF760F80B
:104E9000224639462846FCF753F8BCB944F6206050
:104EA0004349086007E042480068401E40490860E6
:104EB00008B90120DCE74049491C2846FCF742F9C3
:104EC000E8B93B4800680028EDD118E0012C16D164
:104ED00044F620603649086007E035480068401E07
:104EE0003349086008B90120C2E732493E392846F3
:104EF000FCF706F918B92E4800680028EDD1288B78
:104F00000020B5E710B5044644F620602849086043
:104F100007E027480068401E2549086008B90120BD
:104F200010BD25497F312046FCF70CF928B12249F4
:104F3000C91C2046FCF706F918B91D48006800286E
:104F4000E7D101212046FBF7EFFF0020E8E770B52D
:104F500004460D4644F620601549086004E01448F4
:104F60000068401E1249086013497F312046FCF753
:104F7000E9F818B90E4800680028F0D12946204603
:104F8000FCF762F870BD000000000240000802401B
:104F900038000020001C02400004024000140240BF
:104FA000005400402C00002000580040005C0040ED
:104FB0002800002040000300010000102DE9F0410E
:104FC00005460E46144600231A4631462846FFF78A
:104FD00039FF21462846FFF7BAFF2846FFF792FF20
:104FE0000023012231462846FFF72CFF2846FFF711
:104FF00006FF07463846BDE8F0812DE9F041064638
:105000000F4614461D4600231A4639463046FFF720
:1050100019FF21463046FFF79AFF29463046FFF731
:1050200096FF3046FFF76EFFBDE8F08170B504468D
:1050300001212046FBF78CFF44F620604B490860B5
:1050400004E04A480068401E484908604849204634
:10505000FCF756F818B9454800680028F1D12046F9
:10506000FBF7F4FF0546284670BD2DE9F047804662
:10507000894616461D46089F0123002249464046A0
:10508000FFF7E0FE31464046FFF761FF4046FFF77D
:1050900039FF01231A4649464046FFF7D3FE002454
:1050A0000DE0781EA04204D14046FFF7A8FE285527
:1050B00003E04046FFF7BAFF2855601CC4B2BC426B
:1050C000EFDBBDE8F0872DE9F0410746884615463D
:1050D0001E4601231A4641463846FFF7B3FE002418
:1050E0000DE0701EA04204D13846FFF788FE285517
:1050F00003E03846FFF79AFF2855601CC4B2B4425B
:10510000EFDBBDE8F0812DE9F047074688461546FC
:105110001E46DDF8209000231A4641463846FFF728
:1051200091FE29463846FFF712FF002405E0315D65
:105130003846FFF70CFF601CC4B24C45F7DB38461D
:10514000FFF7E0FEBDE8F08770B504460D46002687
:105150000123002229462046FFF774FE00B90126EC
:105160002046FFF7CFFE304670BD0000280000202B
:105170004000030070B504460D4602206E490880C9
:1051800021466E4800F08CFD29466C4800F088FDF1
:1051900002206949891E088070BD70B5044602204E
:1051A0006549088044F08001644800F079FDFF21E2
:1051B000624800F075FD054602205F49891E08809F
:1051C000284670BD1CB501210420FBF73CFB0120E3
:1051D0008DF8040000208DF80600022000900020C9
:1051E0008DF8070002208DF80500694652481A38EC
:1051F000FBF702FD02205049891E08801CBD10B536
:105200000446FFF7DFFF00214C4800F01CFD0F2093
:10521000FFF7C3FFD42801D0012010BDFF212020BB
:10522000FFF7A8FF24B900212320FFF7A3FF0CE01C
:10523000012C04D110212320FFF79CFF05E0022C54
:1052400003D120212320FFF795FF3D480470002162
:105250002120FFF78FFF10212420FFF78BFF002074
:10526000DBE710B52DED028B04462820FFF795FFF4
:1052700020802920FFF791FF218841EA002000B219
:1052800020802A20FFF789FF60802B20FFF785FF11
:10529000618841EA002000B260802C20FFF77DFF8A
:1052A000A0802D20FFF779FFA18841EA002000B2FD
:1052B000A0802348007810B99FED228A08E020489A
:1052C0000078012802D19FED208A01E09FED1F8A1E
:1052D000B4F9000000EE100AB8EEC00A20EE080A89
:1052E000F0EE408ABDEEE80A10EE100A00B220800F
:1052F000B4F9020000EE100AB8EEC00A20EE080A67
:10530000F0EE408ABDEEE80A10EE100A00B26080AE
:10531000B4F9040000EE100AB8EEC00A20EE080A44
:10532000F0EE408ABDEEE80A10EE100A00B2A0804E
:105330000020BDEC028B10BD1A0802400050014055
:1053400040000020295C0F3C295C8F3C295C8F3D8C
:105350001CB502208DF8040000208DF806008DF8A1
:10536000070003208DF8050001210220FBF76BFAEE
:105370000C220521D148FBF7CAFC0C220621CF489C
:10538000FBF7C5FC602000906946CC48FBF734FC75
:1053900001210420FBF757FA0C220021C848FBF733
:1053A000B6FC012000906946C548FBF725FC0121A9
:1053B0000820FBF748FA0C220021C248FBF7A7FCA3
:1053C0000C220121BF48FBF7A2FC0C220821BD489A
:1053D000FBF79DFC0C220921BA48FBF798FC0C2234
:1053E0000A21B848FBF793FC0C220E21B548FBF7C5
:1053F0008EFC0C220F21B348FBF789FC4CF20370A2
:1054000000906946AF48FBF7F7FB01211020FBF73E
:105410001AFA0C220021AC48FBF779FC0C2201217E
:10542000A948FBF774FC0C220721A748FBF76FFC87
:105430000C220821A448FBF76AFC0C220921A2488F
:10544000FBF765FC0C220A219F48FBF760FC0C224D
:105450000B219D48FBF75BFC0C2211469A48FBF799
:1054600056FC0C220D219848FBF751FC0C220E2112
:105470009548FBF74CFC0C220F219348FBF747FCA7
:105480004FF68370009069468F48FBF7B5FB01210A
:105490002020FBF7D8F90C2200218C48FBF737FCC1
:1054A0000C2201218948FBF732FC0C22022187489B
:1054B000FBF72DFC0C2203218448FBF728FC0C226F
:1054C00004218248FBF723FC0C2205217F48FBF7CF
:1054D0001EFC0C220B217D48FBF719FC0C22114607
:1054E0007A48FBF714FC0C220D217848FBF70FFCDF
:1054F0000C220E217548FBF70AFC0C220F21734881
:10550000FBF705FC4FF63F00009069466F48FBF73C
:1055100073FB01214020FBF796F90C2200216C4817
:10552000FBF7F5FB0C2201216948FBF7F0FB0C228D
:1055300004216748FBF7EBFB0C2205216448FBF7CD
:10554000E6FB0C2208216248FBF7E1FB0C220F214D
:105550005F48FBF7DCFB48F23310009069465C487B
:10556000FBF74AFB1CBD10B596B04FF6FF74FFF772
:10557000EFFE01210846FBF79CF90220049007206A
:1055800005900420069007200790022008900990BB
:105590000A9001200B9000200C9004200D90102008
:1055A0000E9040200F904FF4C0701090002011908A
:1055B0004FF400601290002013904FF400501490AC
:1055C00004A815900BA8FCF71BFD012000900820F3
:1055D0000190012002900020039000BF00BF202115
:1055E0000120FCF754FE18B12000A4F10104F6D10B
:1055F0006846FCF7A5FD02200090082001900120DC
:105600000290002003904FF6FF7400BF202101207C
:10561000FCF73DFE18B12000A4F10104F6D1684664
:10562000FCF78EFD032000900820019002900020DE
:1056300003904FF6FF7400BF20210120FCF727FEE6
:1056400018B12000A4F10104F6D16846FCF778FDFA
:1056500004200090082001900120029040F23120A7
:1056600003904FF6FF7400BF20210120FCF70FFECE
:1056700018B12000A4F10104F6D16846FCF760FDE2
:105680004FF42A70FCF77BFD4FF6FF7400BF20211A
:105690000120FCF7FCFD18B12000A4F10104F6D1B3
:1056A00010200C4908704FF0504090F8500010281E
:1056B00002D1012016B010BD0020FBE7000402401B
:1056C00000080240000C024000100240001402409A
:1056D00000180240500000D010B588B004460121E7
:1056E0004020FBF7B0F800208DF81E008DF81F0059
:1056F00003208DF81D0002208DF81C004FF4E040BF
:10570000069006A9FE48FBF777FA05220D21FC4812
:10571000FBF7FDFA05220C21F948FBF7F8FA052200
:105720000E21F748FBF7F3FA01214805FBF7E3F8F0
:1057300001A8FBF781FE2020ADF810000020ADF895
:105740000800ADF80400ADF812004FF48270ADF817
:1057500006000020ADF80A00ADF80C004FF4007010
:10576000ADF80E0001A9E748FBF782FD0121E548ED
:10577000FBF778FE08B010BD10B588B004460020D5
:105780008DF81E008DF81F0003208DF81D000220EB
:105790008DF81C00D4B901212020FBF754F84FF4F8
:1057A0006070069006A9D848FBF726FA0522072163
:1057B000D548FBF7ACFA05220821D348FBF7A7FA36
:1057C00005220921D048FBF7A2FA24E0012C22D1BE
:1057D00001212020FBF737F801218020FBF733F867
:1057E000C020069006A9C848FBF706FAE00206901A
:1057F00006A9C548FBF700FA05220B21C248FBF7B2
:1058000086FA05220621C148FBF781FA0522072105
:10581000BE48FBF77CFA01210805FBF76CF801A8EC
:10582000FBF70AFE2020ADF810000020ADF80800BC
:10583000ADF80400ADF812004FF48270ADF8060028
:105840000020ADF80A00ADF80C004FF40070ADF880
:105850000E0001A9AE48FBF70BFD0121AC48FBF798
:1058600001FE08B010BD10B588B0044600208DF8C8
:105870001E008DF81F0003208DF81D0002208DF8FA
:105880001C00CCB901211020FAF7DDFF642006903E
:1058900006A9A048FBF7B0F9052202219D48FBF7B5
:1058A00036FA052211469B48FBF731FA05220621FC
:1058B0009848FBF72CFA1BE0012C19D1012110208C
:1058C000FAF7C1FF4FF4E040069006A99148FBF7B4
:1058D00093F905220C218F48FBF719FA05220D21B7
:1058E0008C48FBF714FA05220E218A48FBF70FFAC1
:1058F00001214803FAF7FFFF01A8FBF79DFD2020D7
:10590000ADF810000020ADF80800ADF80400ADF8C7
:1059100012004FF48270ADF806000020ADF80A00C6
:10592000ADF80C004FF40070ADF80E0001A97A48F4
:10593000FBF79EFC01217848FBF794FD08B010BDF1
:1059400010B588B0044600208DF81E008DF81F00A9
:1059500003208DF81D0002208DF81C00C4B9012120
:10596000FAF771FF3820069006A96C48FBF744F956
:10597000062203216948FBF7CAF906220421674879
:10598000FBF7C5F9062205216448FBF7C0F91BE0C7
:10599000012C19D101210420FAF755FF4FF4E050F2
:1059A000069006A95E48FBF727F906220A215C4803
:1059B000FBF7ADF906220B215948FBF7A8F906229F
:1059C0000C215748FBF7A3F90121C803FAF782FF1E
:1059D00001A8FBF731FD2020ADF810000020ADF844
:1059E0000800ADF80400ADF812004FF48270ADF875
:1059F00006000020ADF80A00ADF80C004FF400706E
:105A0000ADF80E0001A94748FBF732FC01214548DB
:105A1000FBF728FD08B010BD10B588B00446002083
:105A20008DF81E0001208DF81F0003208DF81D0049
:105A300002208DF81C001CBB0121FAF704FF012194
:105A40000420FAF700FF0C20069006A93448FBF763
:105A5000D3F84FF48060069006A93048FBF7CCF8E5
:105A6000052202212E48FBF752F9052203212C487A
:105A7000FBF74DF905220A212848FBF748F937E0E2
:105A8000012C1AD101210220FAF7DDFE4FF460400B
:105A9000069006A92148FBF7AFF805220D211F4803
:105AA000FBF735F905220E211C48FBF730F90522DA
:105AB0000F211A48FBF72BF91AE0022C18D101210B
:105AC0000802FAF7C0FE0D20069006A91348FBF75E
:105AD00093F8052200211448FBF719F90522022149
